S01300004C4344204578616D706C652E7372656352
S11300000C942A000C9416090C9447000C94470095
S11300100C9447000C9447000C94E2020C944700A3
S11300200C9447000C9447000C9447000C94470030
S11300300C9447000C9447000C9447000C94470020
S11300400C9447000C9447000C9447000C94470010
S11300500C94470011241FBECFE5D4E0DEBFCDBF12
S113006010E0A0E6B0E0E4E8F2E102C005900D92F1
S1130070A637B107D9F724E0A6E7B0E001C01D9286
S1130080A732B207E1F70E94E8080C9440090C94E7
S11300900000613031F138F0623009F440C063305F
S11300A009F45BC00895413061F44AB321E030E0C3
S11300B0B90102C0660F771F8A95E2F7CB01842B42
S11300C00EC0411167C04AB321E030E0B90102C05B
S11300D0660F771F8A95E2F7CB01809584238ABB4C
S11300E00895413061F447B321E030E0B90102C022
S11300F0660F771F8A95E2F7CB01842B0EC041115E
S113010049C047B321E030E0B90102C0660F771F50
S11301108A95E2F7CB018095842387BB089541300B
S113012061F444B321E030E0B90102C0660F771FE7
S11301308A95E2F7CB01842B0EC041112BC044B346
S113014021E030E0B90102C0660F771F8A95E2F71B
S1130150CB018095842384BB0895413061F441B37D
S113016021E030E0B90102C0660F771F8A95E2F7FB
S1130170CB01842B0EC041110DC041B321E030E00E
S1130180B90102C0660F771F8A95E2F7CB0180950B
S1130190842381BB0895613031F138F0623009F471
S11301A040C0633009F45BC00895413061F44BB33F
S11301B021E030E0B90102C0660F771F8A95E2F7AB
S11301C0CB01842B0EC0411167C04BB321E030E05A
S11301D0B90102C0660F771F8A95E2F7CB018095BB
S11301E084238BBB0895413061F448B321E030E0AF
S11301F0B90102C0660F771F8A95E2F7CB01842B01
S11302000EC0411149C048B321E030E0B90102C039
S1130210660F771F8A95E2F7CB018095842388BB0C
S11302200895413061F445B321E030E0B90102C0E2
S1130230660F771F8A95E2F7CB01842B0EC041111C
S11302402BC045B321E030E0B90102C0660F771F2F
S11302508A95E2F7CB018095842385BB08954130CC
S113026061F442B321E030E0B90102C0660F771FA8
S11302708A95E2F7CB01842B0EC041110DC042B325
S113028021E030E0B90102C0660F771F8A95E2F7DA
S1130290CB018095842382BB0895F89485B78E7F23
S11302A085BF85B7826085BF8BB780648BBF789428
S11302B00895FC010396928381832FEF3FEF3483EB
S11302C02383968385839087878310820895FC0116
S11302D0118610860895CF93DF939C01FB01DC0106
S11302E01196CD91DC911297D383C2838C819D8129
S11302F0958384838C819D81DC0113967C936E931A
S113030012977D836C8331872087F90180818F5F09
S11303108083DF91CF9108950F931F93CF93DF9341
S11303208C01FB01808191818F3F2FEF920721F493
S1130330E801AF81B8850EC0D801139612962D91AD
S11303403C911397E901488159818417950710F06E
S1130350D901F4CF12968D919C9113979383828344
S1130360EC01FD83EC83B583A4831396FC93EE9395
S1130370129711870087F80180818F5F8083DF9156
S1130380CF911F910F910895CF93DF93FC01A08526
S1130390B1858281938124813581EC013D832C8355
S11303A0C481D5819B838A8311968D919C911297E8
S11303B0E817F90721F41296DC93CE93119711866E
S11303C010868C9181508C938C91DF91CF910895FC
S11303D031E1FC013083319722E220833197A3E39A
S11303E0A08331976083319770833197108231975E
S11303F060E8608331971082319762E060833197BF
S113040063E06083319764E06083319765E06083E3
S1130410319766E06083319767E06083319768E0E5
S11304206083319769E06083319760E1608331973D
S11304303083319732E13083319733E13083319720
S113044034E13083319735E13083319736E13083BD
S1130450319737E13083319738E13083319739E18F
S11304603083319730E23083319731E230833197F2
S11304702083319723E2208331974083319750833F
S1130480319726E22083319727E22083319728E2AF
S11304902083319729E22083319720E32083319709
S11304A021E32083869708951BBC8EE08ABD8BE0F0
S11304B08EBD89B7806189BFA0912304B0912404C3
S11304C0CD91CDBFDD91DEBFFF91EF91DF91CF9153
S11304D0BF91AF919F918F917F916F915F914F9158
S11304E03F912F911F910F91FF90EF90DF90CF904C
S11304F0BF90AF909F908F907F906F905F904F9040
S11305003F902F901F900F900FBE0F90089581E0A1
S113051008950F920FB6F8940F921F9211242F9200
S11305203F924F925F926F927F928F929F92AF927F
S1130530BF92CF92DF92EF92FF920F931F932F936C
S11305403F934F935F936F937F938F939F93AF9357
S1130550BF93CF93DF93EF93FF93A0912304B091C4
S113056024040DB60D920EB60D920E943207A0918E
S11305702304B0912404CD91CDBFDD91DEBFFF9162
S1130580EF91DF91CF91BF91AF919F918F917F9127
S11305906F915F914F913F912F911F910F91FF9018
S11305A0EF90DF90CF90BF90AF909F908F907F900F
S11305B06F905F904F903F902F901F900F900FBEC1
S11305C00F9008951F920F920FB60F9211242F933C
S11305D03F934F935F936F937F938F939F93AF93C7
S11305E0BF93EF93FF930E943D06FF91EF91BF915C
S11305F0AF919F918F917F916F915F914F913F91B7
S11306002F910F900FBE0F901F901895CF93DF93EB
S1130610EC010E9437068091760090917700892B37
S113062031F48BE790E090937700809376002091EB
S1130630780030917900C9018C0F9D1F8F3143E000
S1130640940770F42817390758F4C0917600D091B4
S11306507700C20FD31F909379008093780002C073
S1130660C0E0D0E00E94C506CE01DF91CF9108958D
S113067008950FB6F8940F92FC01928D0F900FBE5F
S113068081E0911180E00895EF92FF921F93CF9340
S1130690DF93EC010FB6F8940F921E8D7C0181E17B
S11306A0E80EF11C11165CF48989882341F0C70116
S11306B00E94850781110E94FA071150F3CF8FEF32
S11306C08E8F0F900FBE0FB6F8940F921D8D7E0182
S11306D088E0E80EF11C11165CF48885882341F04B
S11306E0C7010E94850781110E94FA071150F3CFB8
S11306F08FEF8D8F0F900FBEDF91CF911F91FF90E1
S1130700EF900895CF93DF93EC010FB6F8940F9216
S1130710488159818B8D7C8D9A01879F200D311DD5
S113072011243D832C831A8E5B834A8390E00197C6
S1130730789F9001799F300D1124CA01820F931F75
S11307409F838E838FEF8D8F8E8F611108C0888574
S1130750882369F0CE0108960E94850708C0CE015F
S113076008960E945901CE0141960E9459010F90AA
S11307700FBE81E0DF91CF9108950F931F93CF9324
S1130780DF93082F162F869FC00111244F960E94D5
S11307900603EC01009771F0111103C0998388835B
S11307A003C04F96998388830B8F1C8F61E0CE0121
S11307B00E948203CE01DF91CF911F910F91089582
S11307C0CF93C62F42E060E00E94BD03009711F072
S11307D0FC01C28FCF910895CF93DF93FC01928DDA
S11307E0838D9817C0F4868D9F5F928F8F3F79F425
S11307F08189882371F0EB01CF0141960E9485071E
S1130800882339F0209729F081E0888305C08F5F21
S1130810868F81E001C080E0DF91CF910895EF924F
S1130820FF920F931F93CF93DF9300D000D01F92BA
S1130830CDB7DEB78C017D836C8390E0780181E1D4
S1130840E80EF11C0FB6F8940F92F801828D8823FC
S113085069F08150828F8085882321F0C801089631
S11308600E9485070F900FBE81E050C02C813D810E
S1130870232B19F40F900FBE48C0911104C0CE0170
S113088001960E94C5070F900FBE0E9437060FB64F
S1130890F8940F92F801858D8F3F09F4158EF801B5
S11308A0868D8F3F09F4168E0F900FBEBE016C5FCC
S11308B07F4FCE0101960E94D00781111CC0C80150
S11308C00E943903882389F06C817D81C7010E94CD
S11308D07507C8010E9444030E94C506882311F0CD
S11308E091E0B0CF0E948902FBCFC8010E9444036B
S11308F00E94C506F5CFC8010E9444030E94C506A4
S1130900C8010E943903882359F380E00F900F90A7
S11309100F900F900F90DF91CF911F910F91FF9047
S1130920EF900895E091BE03F091BF03808181119F
S113093003C08FEF9FEF0CC0E091BE03F091BF03A3
S11309400580F681E02D0680F781E02D8281938178
S113095090939E0380939D0308950F931F93CF93C9
S1130960DF93EC010091A6031091A7038091230467
S11309709091240402960E94C401C00FD11FE091FB
S11309802304F0912404D383C283609123047091DF
S11309902404C017D10760F48091BC039091BD0377
S11309A06E5F7F4FDF91CF911F910F910C948C015B
S11309B08091BE039091BF036E5F7F4F0E948C01B4
S11309C080919D0390919E03C817D90720F4D0937A
S11309D09E03C0939D03DF91CF911F910F910895C2
S11309E08091A903882309F10FB6F8940F92E0913E
S11309F0AF03F091B003C681D781CE0102960E9465
S1130A00C4018091A80381508093A8038091A90315
S1130A1081508093A9030F900FBE8F89988D0E94F7
S1130A203803CE010E943803DBCF0E948902D8CF5D
S1130A304F925F926F927F928F929F92AF92BF92EA
S1130A40CF92DF92EF92FF920F931F93CF93DF9396
S1130A504C016B015A012901CA010E9406033C01A1
S1130A60892B09F4C8C086E290E00E940603EC01D9
S1130A70009789F0788E6F8A21E0A21AB108A60C3B
S1130A80B71CC114D104C9F0BC01675E7F4FF601E5
S1130A90C601089607C0C3010E943803ACC08E1774
S1130AA09F0749F09F014191DB014D93BD01D9019D
S1130AB02C912111F4CF18A201C0198E093008F02D
S1130AC008E00E8B6E01B2E0CB0ED11CC6010E9471
S1130AD06701CE010C960E946701D987C88789E017
S1130AE090E0801B91099D878C87DB8BCA8B19A2B0
S1130AF01AA21BA21CA21DA2A201B401C5010E943C
S1130B00E80199838883E114F10419F0F701D18392
S1130B10C0830FB6F8940F928091A8038F5F8093DF
S1130B20A8038091230490912404892B99F5D093F0
S1130B302404C09323048091A8038130D9F502EDE5
S1130B4013E083E2E82E84E0F82EC8010E945901E4
S1130B50075F1F4FE016F106C1F789EC93E00E948E
S1130B60590180EC93E00E94590183EB93E00E94C9
S1130B7059018AEA93E00E94590189EC93E0909329
S1130B80BF038093BE0380EC93E09093BD038093F6
S1130B90BC0310C08091A40381110CC0E091230414
S1130BA0F091240496898E89891720F0D093240427
S1130BB0C093230480919F038F5F80939F038E894A
S1130BC09091A503981710F48093A503F9E08F9FE3
S1130BD0C0011124B6018E529C4F0E946B010F90EC
S1130BE00FBE8091A403882321F080912304909167
S1130BF0240481E001C08FEFDF91CF911F910F9109
S1130C00FF90EF90DF90CF90BF90AF909F908F9028
S1130C107F906F905F904F900895EF92FF920F93A3
S1130C208BE9E82E83E0F82E00E020E030E045E593
S1130C3050E060E670E080EF94E00E941805813097
S1130C4091F4F8942FEF3FEF30939E0320939D038C
S1130C508093A4031092A7031092A6030F91FF9010
S1130C60EF900C9454020F91FF90EF9008958091AF
S1130C709A038F5F80939A030895DF92EF92FF9215
S1130C800F931F93CF93DF9380919A0381116BC0CD
S1130C90C091A603D091A7032196D093A703C09334
S1130CA0A6032097B9F48091BE039091BF032091CD
S1130CB0BC033091BD033093BF032093BE039093D4
S1130CC0BD038093BC038091A0038F5F8093A00336
S1130CD00E94920480919D0390919E03C817D907A6
S1130CE008F44AC089E0D82EE091BE03F091BF0316
S1130CF08081811103C08FEF9FEF0FC0E091BE038D
S1130D00F091BF030580F681E02D06811781F8017B
S1130D1082819381C817D90728F490939E03809306
S1130D209D032AC07801F2E0EF0EF11CC7010E9476
S1130D30C401F80184899589892B21F0C8010C9696
S1130D400E94C401F80186899091A503981710F4B4
S1130D508093A503D89EC0011124B7018E529C4FE5
S1130D600E946B01C1CF8091A2039091A3030196CD
S1130D709093A3038093A20380E0DF91CF911F910E
S1130D800F91FF90EF90DF900895EF92FF920F93F1
S1130D901F93CF93DF930FB6F8940F9280919A0329
S1130DA0815080939A0380919A03811151C080915C
S1130DB0A803882309F44CC0C0E0D0E089E0F82EF1
S1130DC0EE24E3948091B303882351F1E091B803B6
S1130DD0F091B903C681D781CE010C960E94C4015B
S1130DE08E010E5F1F4FC8010E94C4018E8990912D
S1130DF0A503981710F48093A503F89EC00111244D
S1130E00B8018E529C4F0E946B01E0912304F09133
S1130E1024049E8986899817A8F2E092A103D2CF70
S1130E20CD2B11F00E949204C091A203D091A30390
S1130E30209761F011E00E943D0681111093A103F7
S1130E402197C9F71092A3031092A2038091A103E2
S1130E500F900FBE80E0DF91CF911F910F91FF9013
S1130E60EF90089580919A03882321F081E0809384
S1130E70A10308951092A1038091A50369E0482F6E
S1130E8050E0649F9001659F300D1124F901EE52EA
S1130E90FC4F9081911102C08150F1CFA181B281A8
S1130EA012960D90BC91A02DB283A1832B523C4F7E
S1130EB0A217B30731F412962D913C911397328304
S1130EC0218399E0949FF001959FF00D1124EE5237
S1130ED0FC4F0180F281E02D268137813093240478
S1130EE0209323048093A5030895CF93DF93EB010C
S1130EF06091230470912404645F7F4F0E948C01ED
S1130F00CE01DF91CF910C94AD040F931F93CF9337
S1130F10DF93DC011596ED91FC911697C681D7817C
S1130F208E01045F1F4FC8010E94C40180919A037F
S1130F30811114C00A501109C8010E94C4018E898C
S1130F409091A503981710F48093A503B9E08B9FA3
S1130F50C0011124B8018E529C4F03C0B80183EB29
S1130F6093E00E946B01E0912304F09124049E8994
S1130F708689891720F481E08093A10301C080E071
S1130F80DF91CF911F910F9108952091A003FC014F
S1130F9020832091A6033091A703328321830895EF
S1130FA00FB6F8940F922091A6033091A703DC01A9
S1130FB011964D915C911297E091A003FC91FE175C
S1130FC019F02417350790F4241B350BFB014081DD
S1130FD051812417350740F4421B530B518340833E
S1130FE00E94C50780E003C01182108281E00F9047
S1130FF00FBE089581E08093A103089520E030E0BE
S11310002817390721F000002F5F3F4FF9CF0895CB
S1131010CF93C82F8BB38F709C2F907F892B8BBB62
S113102041E060E080E00E94CB0040E060E081E0CD
S11310300E94CB0041E060E082E00E94CB0081E0AE
S113104090E00E94FE0740E060E082E00E94CB0056
S113105084E190E00E94FE078BB3282F2F7030E1CB
S1131060C39FC0011124822B8BBB41E060E082E06E
S11310700E94CB0081E090E00E94FE0740E060E027
S113108082E00E94CB0088EC90E0CF910C94FE07A4
S1131090CF93DF93EC018991882319F00E9408080B
S11310A0FACFDF91CF910895CF93C82F8BB38F7070
S11310B09C2F907F892B8BBB40E060E080E00E94F6
S11310C0CB0040E060E081E00E94CB0041E060E0C2
S11310D082E00E94CB0081E090E00E94FE0740E0A5
S11310E060E082E00E94CB0084E190E00E94FE0771
S11310F08BB3282F2F7030E1C39FC0011124822BA2
S11311008BBB41E060E082E00E94CB0081E090E094
S11311100E94FE0740E060E082E00E94CB0088EC81
S113112090E0CF910C94FE0720E030E028173907B7
S113113049F0E9EFF0E03197F1F700C000002F5FCC
S11311403F4FF4CF089581E00E94540885E090E079
S11311500C9494088AB387608ABB8AB3806F8ABB75
S113116084E190E00E94940840E060E082E00E9404
S1131170CB0083E30E94540882E30E94540888E26F
S11311800E9454088CE00E9454080E94A30886E040
S11311900E94540888EC90E00C94FE076FEF7FEFF8
S11311A080912504909126040E940F048130B1F7A8
S11311B085E690E00E9448082FE986E891E02150F6
S11311C080409040E1F700C000000E94A308E6CFF1
S11311D0EF92FF920F930E94AA0840E063E082E03E
S11311E00E94490041E063E082E00E94CB000E943B
S11311F04D0160E081E00E94E00390932604809317
S11312002504E12CF12C02E020E030E045E550E03B
S113121060E070E08EEC98E00E9418050E940D06D4
S113122080E090E00F91FF90EF9008951F920F924D
S11312300FB60F9211242F933F934F935F936F93A5
S11312407F938F939F93AF93BF93EF93FF9360E04C
S113125070E080912504909126040E94EC03FF9194
S1131260EF91BF91AF919F918F917F916F915F911A
S11312704F913F912F910F900FBE0F901F90189593
S1071280F894FFCF0C
S113128449444C4500427574746F6E205072657302
S10912947365643A440096
S9030000FC
