:100000000C942A000C9447000C9447000C94470071
:100010000C9447000C9447000C9402030C94470086
:100020000C9447000C9447000C9447000C94470034
:100030000C9447000C9447000C9447000C94470024
:100040000C9447000C9447000C9447000C94470014
:100050000C94470011241FBECFE5D4E0DEBFCDBF16
:1000600010E0A0E6B0E0E8EDF5E102C005900D92E9
:10007000A438B107D9F724E0A4E8B0E001C01D928C
:10008000A633B207E1F70E94B20A0C94EA0A0C9474
:100090000000613031F138F0623009F440C0633063
:1000A00009F45BC00895413061F44AB321E030E0C7
:1000B000B90102C0660F771F8A95E2F7CB01842B46
:1000C0000EC0411167C04AB321E030E0B90102C05F
:1000D000660F771F8A95E2F7CB01809584238ABB50
:1000E0000895413061F447B321E030E0B90102C026
:1000F000660F771F8A95E2F7CB01842B0EC0411162
:1001000049C047B321E030E0B90102C0660F771F54
:100110008A95E2F7CB018095842387BB089541300F
:1001200061F444B321E030E0B90102C0660F771FEB
:100130008A95E2F7CB01842B0EC041112BC044B34A
:1001400021E030E0B90102C0660F771F8A95E2F71F
:10015000CB018095842384BB0895413061F441B381
:1001600021E030E0B90102C0660F771F8A95E2F7FF
:10017000CB01842B0EC041110DC041B321E030E012
:10018000B90102C0660F771F8A95E2F7CB0180950F
:10019000842381BB0895613031F138F0623009F475
:1001A00040C0633009F45BC00895413061F44BB343
:1001B00021E030E0B90102C0660F771F8A95E2F7AF
:1001C000CB01842B0EC0411167C04BB321E030E05E
:1001D000B90102C0660F771F8A95E2F7CB018095BF
:1001E00084238BBB0895413061F448B321E030E0B3
:1001F000B90102C0660F771F8A95E2F7CB01842B05
:100200000EC0411149C048B321E030E0B90102C03D
:10021000660F771F8A95E2F7CB018095842388BB10
:100220000895413061F445B321E030E0B90102C0E6
:10023000660F771F8A95E2F7CB01842B0EC0411120
:100240002BC045B321E030E0B90102C0660F771F33
:100250008A95E2F7CB018095842385BB08954130D0
:1002600061F442B321E030E0B90102C0660F771FAC
:100270008A95E2F7CB01842B0EC041110DC042B329
:1002800021E030E0B90102C0660F771F8A95E2F7DE
:10029000CB018095842382BB0895813041F028F002
:1002A000823039F0833039F008956BBB089568BB14
:1002B000089565BB089562BB0895482F613059F0D9
:1002C00030F0623051F0633091F420B307C099B33D
:1002D000892F90E005C026B301C023B330E0C901E7
:1002E00002C0959587954A95E2F78170089580E060
:1002F0000895FC010396928381832FEF3FEF3483AF
:100300002383968385839087878310820895FC01D9
:10031000118610860895CF93DF939C01FB01DC01C9
:100320001196CD91DC911297D383C2838C819D81EC
:10033000958384838C819D81DC0113967C936E93DD
:1003400012977D836C8331872087F90180818F5FCD
:100350008083DF91CF9108950F931F93CF93DF9305
:100360008C01FB01808191818F3F2FEF920721F457
:10037000E801AF81B8850EC0D801139612962D9171
:100380003C911397E901488159818417950710F032
:10039000D901F4CF12968D919C9113979383828308
:1003A000EC01FD83EC83B583A4831396FC93EE9359
:1003B000129711870087F80180818F5F8083DF911A
:1003C000CF911F910F910895CF93DF93FC01A085EA
:1003D000B1858281938124813581EC013D832C8319
:1003E000C481D5819B838A8311968D919C911297AC
:1003F000E817F90721F41296DC93CE931197118632
:1004000010868C9181508C938C91DF91CF910895BF
:1004100031E1FC013083319722E220833197A3E35D
:10042000A083319760833197708331971082319721
:1004300060E8608331971082319762E06083319782
:1004400063E06083319764E06083319765E06083A7
:10045000319766E06083319767E06083319768E0A9
:100460006083319769E06083319760E16083319701
:100470003083319732E13083319733E130833197E4
:1004800034E13083319735E13083319736E1308381
:10049000319737E13083319738E13083319739E153
:1004A0003083319730E23083319731E230833197B6
:1004B0002083319723E22083319740833197508303
:1004C000319726E22083319727E22083319728E273
:1004D0002083319729E22083319720E320833197CD
:1004E00021E32083869708951BBC8EE08ABD8BE0B4
:1004F0008EBD89B7806189BFA0913104B09132046B
:10050000CD91CDBFDD91DEBFFF91EF91DF91CF9116
:10051000BF91AF919F918F917F916F915F914F911B
:100520003F912F911F910F91FF90EF90DF90CF900F
:10053000BF90AF909F908F907F906F905F904F9003
:100540003F902F901F900F900FBE0F90089581E065
:1005500008950F920FB6F8940F921F9211242F92C4
:100560003F924F925F926F927F928F929F92AF9243
:10057000BF92CF92DF92EF92FF920F931F932F9330
:100580003F934F935F936F937F938F939F93AF931B
:10059000BF93CF93DF93EF93FF93A0913104B0917A
:1005A00032040DB60D920EB60D920E943808A0913D
:1005B0003104B0913204CD91CDBFDD91DEBFFF910A
:1005C000EF91DF91CF91BF91AF919F918F917F91EB
:1005D0006F915F914F913F912F911F910F91FF90DC
:1005E000EF90DF90CF90BF90AF909F908F907F90D3
:1005F0006F905F904F903F902F901F900F900FBE85
:100600000F9008951F920F920FB60F9211242F93FF
:100610003F934F935F936F937F938F939F93AF938A
:10062000BF93EF93FF930E942F07FF91EF91BF912C
:10063000AF919F918F917F916F915F914F913F917A
:100640002F910F900FBE0F901F901895CF93DF93AF
:10065000EC010E9429078091840090918500892BEC
:1006600031F489E890E09093850080938400209194
:10067000860030918700C9018C0F9D1F8F3143E0A8
:10068000940770F42817390758F4C0918400D0916A
:100690008500C20FD31F909387008093860002C00D
:1006A000C0E0D0E00E94B707CE01DF91CF9108955E
:1006B00008950FB6F8940F92FC01928D0F900FBE23
:1006C00081E0911180E008950F931F93CF93DF9302
:1006D000EC01042F1A8D4C8D4423B1F150E001112F
:1006E00015C08A819B810E94E10A2C8D8A819B81A1
:1006F000820F911D9B838A832C813D8182179307F2
:1007000018F1888199819B838A831EC08E819F8185
:100710000E94E10A8C8D90E09195819591092E813E
:100720003F81280F391F3F832E8348815981241729
:10073000350730F42C813D81820F931F9F838E8378
:10074000023011F4111111501F5F1A8F80E0DF91F8
:10075000CF911F910F910895FC01CB01448D44234B
:10076000A1F050E026813781240F351F378326837F
:10077000648175812617370720F020813181378306
:100780002683668177810C94E10A0895EF92FF92A7
:100790001F93CF93DF93EC010FB6F8940F921E8D49
:1007A0007C0181E1E80EF11C11165CF48989882333
:1007B00041F0C7010E948B0881110E94000911506D
:1007C000F3CF8FEF8E8F0F900FBE0FB6F8940F926E
:1007D0001D8D7E0188E0E80EF11C11165CF4888501
:1007E000882341F0C7010E948B0881110E940009F3
:1007F0001150F3CF8FEF8D8F0F900FBEDF91CF9100
:100800001F91FF90EF900895CF93DF93EC010FB607
:10081000F8940F92488159818B8D7C8D9A01879F26
:10082000200D311D11243D832C831A8E5B834A8356
:1008300090E00197789F9001799F300D1124CA01B3
:10084000820F931F9F838E838FEF8D8F8E8F611109
:1008500008C08885882369F0CE0108960E948B081D
:1008600008C0CE0108960E947901CE0141960E94EF
:1008700079010F900FBE81E0DF91CF9108950F9322
:100880001F93CF93DF93082F162F869FC00111244B
:100890004F960E942603EC01009771F0111103C0DE
:1008A0009983888303C04F96998388830B8F1C8F0D
:1008B00061E0CE010E940404CE01DF91CF911F912F
:1008C0000F910895AF92BF92CF92DF92FF920F9354
:1008D0001F93CF93DF9300D000D01F92CDB7DEB728
:1008E0008C016B015D834C83F22E80E0580198E00F
:1008F000A90EB11C0FB6F8940F92F801228D938DBA
:10090000291718F0F2E0FF1211C04F2DB601C801EF
:100910000E946403F8018189882321F0C80141966F
:100920000E948B080F900FBE81E050C02C813D814A
:10093000232B19F40F900FBE48C0811104C0CE01C3
:1009400001960E94CB080F900FBE0E9429070FB698
:10095000F8940F92F801858D8F3F09F4158EF801F8
:10096000868D8F3F09F4168E0F900FBEBE016C5F0F
:100970007F4FCE0101960E94D608811121C00FB68B
:10098000F8940F92F801928D0F900FBE838D9813FB
:1009900011C06C817D81C5010E947B08C8010E9445
:1009A000C6030E94B707882311F081E0A3CF0E94FD
:1009B000A902FBCFC8010E94C6030E94B707F5CF6A
:1009C000C8010E94C6030E94B70780E00F900F90F5
:1009D0000F900F900F90DF91CF911F910F91FF908B
:1009E000DF90CF90BF90AF900895AF92BF92CF921B
:1009F000DF92FF920F931F93CF93DF9300D000D02D
:100A00001F92CDB7DEB78C016B015D834C8380E014
:100A1000580191E1A90EB11C0FB6F8940F92F8019C
:100A2000F28CFF2091F0B601C8010E94AC03FA9449
:100A3000F801F28E8085882321F0C80108960E9473
:100A40008B080F900FBE81E050C02C813D81232B7D
:100A500019F40F900FBE48C0811104C0CE01019659
:100A60000E94CB080F900FBE0E9429070FB6F89482
:100A70000F92F801858D8F3F09F4158EF801868D50
:100A80008F3F09F4168E0F900FBEBE016C5F7F4F33
:100A9000CE0101960E94D60881111CC0C8010E9497
:100AA0005903882389F06C817D81C5010E947B08F0
:100AB000C8010E94C6030E94B707882311F081E095
:100AC000ABCF0E94A902FBCFC8010E94C6030E94BF
:100AD000B707F5CFC8010E94C6030E94B707C80137
:100AE0000E945903882359F380E00F900F900F90D4
:100AF0000F900F90DF91CF911F910F91FF90DF909A
:100B0000CF90BF90AF900895E091CC03F091CD03CA
:100B10008081811103C08FEF9FEF0CC0E091CC0367
:100B2000F091CD030580F681E02D0680F781E02D60
:100B3000828193819093AC038093AB0308950F93CC
:100B40001F93CF93DF93EC010091B4031091B50391
:100B5000809131049091320402960E94E401C00F0A
:100B6000D11FE0913104F0913204D383C2836091AC
:100B7000310470913204C017D10760F48091CA0328
:100B80009091CB036E5F7F4FDF91CF911F910F91BB
:100B90000C94AC018091CC039091CD036E5F7F4F9C
:100BA0000E94AC018091AB039091AC03C817D907A8
:100BB00020F4D093AC03C093AB03DF91CF911F918E
:100BC0000F9108958091B703882309F10FB6F89427
:100BD0000F92E091BD03F091BE03C681D781CE0193
:100BE00002960E94E4018091B60381508093B6037F
:100BF0008091B70381508093B7030F900FBE8F8908
:100C0000988D0E945803CE010E945803DBCF0E94AA
:100C1000A902D8CF4F925F926F927F928F929F924C
:100C2000AF92BF92CF92DF92EF92FF920F931F93FA
:100C3000CF93DF934C016B015A012901CA010E9435
:100C400026033C01892B09F4C8C086E290E00E948B
:100C50002603EC01009789F0788E6F8A21E0A21AB2
:100C6000B108A60CB71CC114D104C9F0BC01675E61
:100C70007F4FF601C601089607C0C3010E945803C2
:100C8000ACC08E179F0749F09F014191DB014D9346
:100C9000BD01D9012C912111F4CF18A201C0198EE8
:100CA000093008F008E00E8B6E01B2E0CB0ED11CCB
:100CB000C6010E948701CE010C960E948701D98748
:100CC000C88789E090E0801B91099D878C87DB8B2A
:100CD000CA8B19A21AA21BA21CA21DA2A201B401B6
:100CE000C5010E94080299838883E114F10419F078
:100CF000F701D183C0830FB6F8940F928091B603A9
:100D00008F5F8093B6038091310490913204892BD8
:100D100099F5D0933204C09331048091B6038130A9
:100D2000D9F500EE13E081E3E82E84E0F82EC80147
:100D30000E947901075F1F4FE016F106C1F787EDAA
:100D400093E00E9479018EEC93E00E94790181EC9E
:100D500093E00E94790188EB93E00E94790187ED8E
:100D600093E09093CD038093CC038EEC93E090932B
:100D7000CB038093CA0310C08091B20381110CC0D1
:100D8000E0913104F091320496898E89891720F020
:100D9000D0933204C09331048091AD038F5F809370
:100DA000AD038E899091B303981710F48093B30329
:100DB000F9E08F9FC0011124B60180529C4F0E9420
:100DC0008B010F900FBE8091B203882321F0809198
:100DD00031049091320481E001C08FEFDF91CF9117
:100DE0001F910F91FF90EF90DF90CF90BF90AF9049
:100DF0009F908F907F906F905F904F900895EF92AB
:100E0000FF920F9389EAE82E83E0F82E00E020E0BD
:100E100030E045E550E068E770E082EE95E00E9442
:100E20000A06813091F4F8942FEF3FEF3093AC0332
:100E30002093AB038093B2031092B5031092B403D6
:100E40000F91FF90EF900C9474020F91FF90EF9030
:100E500008958091A8038F5F8093A8030895DF927F
:100E6000EF92FF920F931F93CF93DF938091A8038C
:100E700081116BC0C091B403D091B5032196D0937A
:100E8000B503C093B4032097B9F48091CC0390913B
:100E9000CD032091CA033091CB033093CD0320932F
:100EA000CC039093CB038093CA038091AE038F5FF2
:100EB0008093AE030E9484058091AB039091AC03B4
:100EC000C817D90708F44AC089E0D82EE091CC03AE
:100ED000F091CD038081811103C08FEF9FEF0FC090
:100EE000E091CC03F091CD030580F681E02D0681E1
:100EF0001781F80182819381C817D90728F490934C
:100F0000AC038093AB032AC07801F2E0EF0EF11C32
:100F1000C7010E94E401F80184899589892B21F099
:100F2000C8010C960E94E401F80186899091B303F0
:100F3000981710F48093B303D89EC0011124B70111
:100F400080529C4F0E948B01C1CF8091B003909141
:100F5000B10301969093B1038093B00380E0DF91D9
:100F6000CF911F910F91FF90EF90DF900895EF9236
:100F7000FF920F931F93CF93DF930FB6F8940F92C6
:100F80008091A80381508093A8038091A8038111C8
:100F900051C08091B603882309F44CC0C0E0D0E072
:100FA00089E0F82EEE24E3948091C103882351F167
:100FB000E091C603F091C703C681D781CE010C969C
:100FC0000E94E4018E010E5F1F4FC8010E94E401E0
:100FD0008E899091B303981710F48093B303F89E11
:100FE000C0011124B80180529C4F0E948B01E091F6
:100FF0003104F09132049E8986899817A8F2E09214
:10100000AF03D2CFCD2B11F00E948405C091B00365
:10101000D091B103209761F011E00E942F07811158
:101020001093AF032197C9F71092B1031092B00348
:101030008091AF030F900FBE80E0DF91CF911F91A1
:101040000F91FF90EF900895CF93DF93EC01892BE0
:1010500019F40E94A90209C00E942907CE010E942A
:101060009F050E94B7078823A1F3DF91CF910895D0
:101070008091A803882321F081E08093AF03089535
:101080001092AF038091B30369E0482F50E0649F52
:101090009001659F300D1124F901E052FC4F9081C1
:1010A000911102C08150F1CFA181B28112960D90B1
:1010B000BC91A02DB283A1832D513C4FA217B30741
:1010C00031F412962D913C9113973283218399E04C
:1010D000949FF001959FF00D1124E052FC4F018088
:1010E000F281E02D26813781309332042093310440
:1010F0008093B3030895CF93DF93EB0160913104A4
:1011000070913204645F7F4F0E94AC01CE01DF9189
:10111000CF910C949F050F931F93CF93DF93DC0126
:101120001596ED91FC911697C681D7818E01045FCB
:101130001F4FC8010E94E4018091A803811114C0CF
:101140000A501109C8010E94E4018E899091B303ED
:10115000981710F48093B303B9E08B9FC00111245A
:10116000B80180529C4F03C0B80181EC93E00E940B
:101170008B01E0913104F09132049E8986898917B0
:1011800020F481E08093AF0301C080E0DF91CF9134
:101190001F910F9108952091AE03FC0120832091AF
:1011A000B4033091B5033283218308950FB6F894C8
:1011B0000F922091B4033091B503DC0111964D914B
:1011C0005C911297E091AE03FC91FE1719F0241781
:1011D000350790F4241B350BFB0140815181241706
:1011E000350740F4421B530B518340830E94CB08C8
:1011F00080E003C01182108281E00F900FBE08953D
:1012000081E08093AF03089541E061E084E00E94B3
:10121000490041E061E085E00E94490041E061E071
:1012200086E00E94490041E061E087E00E944900B9
:1012300040E061E080E00E94490040E061E081E040
:101240000E94490040E061E082E00E94490040E0E5
:1012500061E083E00E9449006FEF81E00C944D0152
:1012600020E030E02817390749F0E9EFF0E0319746
:10127000F1F700C000002F5F3F4FF4CF0895AF9209
:10128000BF92CF92DF92EF92FF920F931F93CF9373
:10129000DF931F92CDB7DEB719828AE090E00E94FB
:1012A000300900E010E0C80180599F4F7C01FC012B
:1012B000808140E061E00E94CB00A12CB12CC501EF
:1012C0008C589F4F6C01FC01808161E00E945D01A0
:1012D000811119C0F801EE0FFF1FEE0FFF1FE05A3A
:1012E000FF4FEA0DFB1D80818983F601808161E05B
:1012F0000E945D018823C9F3F701808141E061E02C
:101300000E94CB0013C0FFEFAF1ABF0A84E0A816FB
:10131000B104A9F6F701808141E061E00E94CB00B1
:101320000F5F1F4F0430110509F0BDCF89810F9069
:10133000DF91CF911F910F91FF90EF90DF90CF90B1
:10134000BF90AF90089520E030E02817390721F0D2
:1013500000002F5F3F4FF9CF0895CF93C82F8BB375
:101360008F709C2F907F892B8BBB41E060E080E0E9
:101370000E94CB0040E060E081E00E94CB0041E0B1
:1013800060E082E00E94CB0081E090E00E94A3092F
:1013900040E060E082E00E94CB0084E190E00E94A7
:1013A000A3098BB3282F2F7030E1C39FC0011124F4
:1013B000822B8BBB41E060E082E00E94CB0081E0A9
:1013C00090E00E94A30940E060E082E00E94CB0030
:1013D00088EC90E0CF910C94A309CF93DF93EC01BC
:1013E0008991882319F00E94AD09FACFDF91CF913E
:1013F0000895CF93C82F8BB38F709C2F907F892B2C
:101400008BBB40E060E080E00E94CB0040E060E009
:1014100081E00E94CB0041E060E082E00E94CB00CE
:1014200081E090E00E94A30940E060E082E00E9439
:10143000CB0084E190E00E94A3098BB3282F2F708A
:1014400030E1C39FC0011124822B8BBB41E060E0DF
:1014500082E00E94CB0081E090E00E94A30940E07E
:1014600060E082E00E94CB0088EC90E0CF910C9489
:10147000A30920E030E02817390749F0E9EFF0E050
:101480003197F1F700C000002F5F3F4FF4CF089570
:1014900081E00E94F90985E090E00C94390A8AB352
:1014A00087608ABB8AB3806F8ABB84E190E00E9428
:1014B000390A40E060E082E00E94CB0083E30E94B2
:1014C000F90982E30E94F90988E20E94F9098CE097
:1014D0000E94F9090E94480A86E00E94F90988ECF6
:1014E00090E00C94A309CF93DF931F92CDB7DEB7A2
:1014F0000E943F098983882361F020E04FEF5FEF6E
:10150000BE016F5F7F4F80913404909135040E943B
:10151000620482E390E00E942408EACFCF93DF9335
:101520001F92CDB7DEB74FEF5FEFBE016F5F7F4F0A
:1015300080913404909135040E94F504813099F72C
:10154000809133048F5F80933304873038F00E949A
:10155000480A8DE790E00E94ED09E5CF89810E945D
:10156000AD09E1CFEF92FF920F930E944F0A0E94C4
:10157000040940E061E086E00E943F049093350456
:1015800080933404E12CF12C02E020E030E045E5CA
:1015900050E060E070E083E79AE00E940A0620E0F5
:1015A00030E045E550E060E070E08EE89AE00E94AF
:1015B0000A060E94FF0680E090E00F91FF90EF90F6
:1015C0000895FB01DC0102C001900D924150504092
:0815D000D8F70895F894FFCF4D
:1015D8003738392F343536783132332D43303D2B77
:1015E800040506070001020349444C450057616998
:0415F800742E2E001F
:00000001FF
