:100000000C942A000C9447000C9447000C94470071
:100010000C9447000C9447000C94B0020C944700D9
:100020000C9447000C9447000C9447000C94470034
:100030000C9447000C9447000C9447000C94470024
:100040000C9447000C9447000C9447000C94470014
:100050000C94470011241FBECFE5D4E0DEBFCDBF16
:1000600010E0A0E6B0E0E4EAFCE002C005900D92EA
:10007000A636B107D9F724E0A6E6B0E001C01D928C
:10008000A531B207E1F70E942B060C9450060C94A0
:100090000000613031F138F0623009F440C0633063
:1000A00009F45BC00895413061F44AB321E030E0C7
:1000B000B90102C0660F771F8A95E2F7CB01842B46
:1000C0000EC0411167C04AB321E030E0B90102C05F
:1000D000660F771F8A95E2F7CB01809584238ABB50
:1000E0000895413061F447B321E030E0B90102C026
:1000F000660F771F8A95E2F7CB01842B0EC0411162
:1001000049C047B321E030E0B90102C0660F771F54
:100110008A95E2F7CB018095842387BB089541300F
:1001200061F444B321E030E0B90102C0660F771FEB
:100130008A95E2F7CB01842B0EC041112BC044B34A
:1001400021E030E0B90102C0660F771F8A95E2F71F
:10015000CB018095842384BB0895413061F441B381
:1001600021E030E0B90102C0660F771F8A95E2F7FF
:10017000CB01842B0EC041110DC041B321E030E012
:10018000B90102C0660F771F8A95E2F7CB0180950F
:10019000842381BB0895FC010396928381832FEF12
:1001A0003FEF3483238396838583908787831082F0
:1001B0000895FC01118610860895CF93DF939C016A
:1001C000FB01DC011196CD91DC911297D383C283A0
:1001D0008C819D81958384838C819D81DC01139624
:1001E0007C936E9312977D836C8331872087F9010E
:1001F00080818F5F8083DF91CF9108950F931F934C
:10020000CF93DF938C01FB01808191818F3F2FEF92
:10021000920721F4E801AF81B8850EC0D80113968A
:1002200012962D913C911397E901488159818417C9
:10023000950710F0D901F4CF12968D919C911397E8
:1002400093838283EC01FD83EC83B583A4831396AF
:10025000FC93EE93129711870087F80180818F5FDE
:100260008083DF91CF911F910F910895CF93DF93FA
:10027000FC01A085B1858281938124813581EC01C7
:100280003D832C83C481D5819B838A8311968D9174
:100290009C911297E817F90721F41296DC93CE93FC
:1002A0001197118610868C9181508C938C91DF91DF
:1002B000CF91089531E1FC013083319722E2208310
:1002C0003197A3E3A083319760833197708331978F
:1002D0001082319760E8608331971082319762E035
:1002E0006083319763E06083319764E06083319786
:1002F00065E06083319766E06083319767E06083F3
:10030000319768E06083319769E06083319760E1FD
:10031000608331973083319732E13083319733E115
:100320003083319734E13083319735E13083319731
:1003300036E13083319737E13083319738E13083CC
:10034000319739E13083319730E23083319731E2B0
:10035000308331972083319723E220833197408384
:1003600031975083319726E22083319727E220830B
:10037000319728E22083319729E22083319720E3C7
:100380002083319721E32083869708951BBC89EF52
:100390008ABD8BE08EBD89B7806189BFA0911304AF
:1003A000B0911404CD91CDBFDD91DEBFFF91EF91EF
:1003B000DF91CF91BF91AF919F918F917F916F917D
:1003C0005F914F913F912F911F910F91FF90EF906F
:1003D000DF90CF90BF90AF909F908F907F906F9065
:1003E0005F904F903F902F901F900F900FBE0F90F7
:1003F000089581E008950F920FB6F8940F921F921E
:1004000011242F923F924F925F926F927F928F9220
:100410009F92AF92BF92CF92DF92EF92FF920F9393
:100420001F932F933F934F935F936F937F938F937C
:100430009F93AF93BF93CF93DF93EF93FF93A091DD
:100440001304B09114040DB60D920EB60D920E94D5
:10045000CC05A0911304B0911404CD91CDBFDD91D2
:10046000DEBFFF91EF91DF91CF91BF91AF919F914F
:100470008F917F916F915F914F913F912F911F913C
:100480000F91FF90EF90DF90CF90BF90AF909F9033
:100490008F907F906F905F904F903F902F901F9024
:1004A0000F900FBE0F9008950F920FB6F8940F9211
:1004B0001F9211242F923F924F925F926F927F92E0
:1004C0008F929F92AF92BF92CF92DF92EF92FF9264
:1004D0000F931F932F933F934F935F936F937F934C
:1004E0008F939F93AF93BF93CF93DF93EF93FF933C
:1004F000A0911304B09114040DB60D920EB60D9296
:100500000E94940481110E94CC05A0911304B09123
:100510001404CD91CDBFDD91DEBFFF91EF91DF914E
:10052000CF91BF91AF919F918F917F916F915F918B
:100530004F913F912F911F910F91FF90EF90DF907E
:10054000CF90BF90AF909F908F907F906F905F9073
:100550004F903F902F901F900F900FBE0F900895D7
:100560000E9454021895CF93DF93EC010E948E04F1
:100570008091660090916700892B31F48BE690E0C2
:100580009093670080936600209168003091690025
:10059000C9018C0F9D1F8F3143E0940770F4281719
:1005A000390758F4C0916600D0916700C20FD31F7D
:1005B000909369008093680002C0C0E0D0E00E9480
:1005C0004505CE01DF91CF9108950895E091AE03E6
:1005D000F091AF038081811103C08FEF9FEF0CC0BA
:1005E000E091AE03F091AF030580F681E02D068027
:1005F000F781E02D8281938190938E0380938D0308
:1006000008950F931F93CF93DF93EC01009196030E
:1006100010919703809113049091140402960E9404
:100620003601C00FD11FE0911304F0911404D3835D
:10063000C2836091130470911404C017D10760F451
:100640008091AC039091AD036E5F7F4FDF91CF91AE
:100650001F910F910C94FE008091AE039091AF0317
:100660006E5F7F4F0E94FE0080918D0390918E03FC
:10067000C817D90720F4D0938E03C0938D03DF9160
:10068000CF911F910F910895809199038823E1F3F1
:100690000FB6F8940F92E0919F03F091A003C681EA
:1006A000D781CE0102960E94360180919803815035
:1006B00080939803809199038150809399030F90C0
:1006C0000FBE8F89988D0E94E502CE010E94E5023F
:1006D000DBCF4F925F926F927F928F929F92AF92F9
:1006E000BF92CF92DF92EF92FF920F931F93CF931F
:1006F000DF934C016B015A012901CA010E94B30228
:100700003C01892B09F4CEC086E290E00E94B3023E
:10071000EC01009789F0788E6F8A21E0A21AB10867
:10072000A60CB71CC114D104C9F0BC01675E7F4F91
:10073000F601C601089607C0C3010E94E502B2C0D7
:100740008E179F0749F09F014191DB014D93BD0139
:10075000D9012C912111F4CF18A201C0198E0930B2
:1007600008F008E00E8B6E01B2E0CB0ED11CC60182
:100770000E94D900CE010C960E94D900D987C88763
:1007800089E090E0801B91099D878C87DB8BCA8B69
:1007900019A21AA21BA21CA21DA2A201B401C5018A
:1007A0000E945A0199838883E114F10419F0F7013A
:1007B000D183C0830FB6F8940F92809198038F5F16
:1007C000809398038091130490911404892B99F5D8
:1007D000D0931404C0931304809198038130D9F509
:1007E00002EC13E083E1E82E84E0F82EC8010E94B9
:1007F000CB00075F1F4FE016F106C1F789EB93E0CE
:100800000E94CB0080EB93E00E94CB0083EA93E050
:100810000E94CB008AE993E00E94CB0089EB93E031
:100820009093AF038093AE0380EB93E09093AD037E
:100830008093AC0310C08091940381110CC0E091AF
:100840001304F091140496898E89891720F0D093AF
:100850001404C093130480918F038F5F80938F03E0
:100860008E8990919503981710F480939503F9E081
:100870008F9FC0011124B6018E539C4F0E94DD0052
:100880000F900FBE80919403882351F0E0911304E0
:10089000F091140496898E89981710F40E94FB0138
:1008A00081E001C08FEFDF91CF911F910F91FF90F9
:1008B000EF90DF90CF90BF90AF909F908F907F9000
:1008C0006F905F904F900895EF92FF920F938BE897
:1008D000E82E83E0F82E00E020E030E045E550E02F
:1008E00060E670E084E493E00E946903813091F453
:1008F000F8942FEF3FEF30938E0320938D03809376
:10090000940310929703109296030F91FF90EF902B
:100910000C94C6010F91FF90EF90089580918A0387
:100920008F5F80938A030895CF92DF92EF92FF92B8
:100930000F931F93CF93DF9380918A03811191C00E
:1009400000919603109197030F5F1F4F1093970329
:100950000093960301151105B9F48091AE039091AF
:10096000AF032091AC033091AD033093AF032093DC
:10097000AE039093AD038093AC03809190038F5F9F
:10098000809390030E94E60280918D0390918E03E4
:10099000C0E00817190708F44FC0D9E0E091AE0392
:1009A000F091AF038081811103C08FEF9FEF11C0E1
:1009B000E091AE03F091AF030580F681E02DE68073
:1009C000F780D70112968D919C91139708171907FC
:1009D00028F490938E0380938D032EC06701B2E0BC
:1009E000CB0ED11CC6010E943601F701848995897E
:1009F000892B21F0C7010C960E943601D70156962B
:100A00008C9190919503981710F480939503D89F3B
:100A1000C0011124B6018E539C4F0E94DD00E0916D
:100A20001304F0911404D70156969C918689981767
:100A300008F4B4CFC1E0B2CFE0911304F0911404F4
:100A4000E689B9E0EB9FF0011124EE53FC4F808161
:100A5000823008F0C1E080919103882361F0C1E009
:100A60000AC080919203909193030196909393030F
:100A700080939203C0E08C2FDF91CF911F910F9153
:100A8000FF90EF90DF90CF900895EF92FF920F9339
:100A90001F93CF93DF930FB6F8940F9280918A0340
:100AA000815080938A0380918A03882311F080E02B
:100AB00056C0809198038823D1F3C0E0D0E089E04C
:100AC000F82EEE24E3948091A303882351F1E09162
:100AD000A803F091A903C681D781CE010C960E948C
:100AE00036018E010E5F1F4FC8010E9436018E89AC
:100AF00090919503981710F480939503F89EC00188
:100B00001124B8018E539C4F0E94DD00E091130424
:100B1000F09114049E8986899817A8F2E0929103B7
:100B2000D2CFCD2B11F00E94E602C0919203D0915A
:100B30009303209761F011E00E94940481111093B7
:100B400091032197C9F71092930310929203809119
:100B50009103882309F4ABCF0E94FB0181E00F9041
:100B60000FBEDF91CF911F910F91FF90EF900895ED
:100B7000CF93DF93EC01892B19F40E94FB0109C08C
:100B80000E948E04CE010E9401030E944505882325
:100B9000A1F3DF91CF91089580918A03882321F0FA
:100BA00081E08093910308951092910380919503C1
:100BB00069E0482F50E0649F9001659F300D11243B
:100BC000F901EE53FC4F9081911102C08150F1CF99
:100BD000A181B28112960D90BC91A02DB283A18308
:100BE0002B533C4FA217B30731F412962D913C9131
:100BF00013973283218399E0949FF001959FF00D24
:100C00001124EE53FC4F0180F281E02D26813781C3
:100C10003093140420931304809395030895C1E046
:100C200082B38C2782BB84EF91E00E94B805F8CF95
:100C3000C2E082B38C2782BB88EC90E00E94B805AA
:100C4000F8CF41E063E080E00E94490041E063E0CA
:100C500081E00C944900EF92FF920F930E942106CD
:100C6000E12CF12C01E020E030E04AEF50E060E0C0
:100C700070E08FE096E00E94690302E020E030E03F
:100C80004AEF50E060E070E088E196E00E9469037E
:100C90000E94640480E090E00F91FF90EF9008952F
:040CA000F894FFCFF6
:060CA40049444C4500002C
:00000001FF
