:100000000C942A000C9447000C9447000C94470071
:100010000C9447000C9447000C9454020C94470035
:100020000C9447000C9447000C9447000C94470034
:100030000C9447000C9447000C9447000C94470024
:100040000C9447000C9447000C9447000C94470014
:100050000C94470011241FBECFE5D4E0DEBFCDBF16
:1000600010E0A0E6B0E0E2E9F1E102C005900D92F7
:10007000A838B107D9F724E0A8E8B0E001C01D9284
:10008000A933B207E1F70E9488080C94C7080C94C2
:100090000000613031F138F0623009F440C0633063
:1000A00009F45BC00895413061F44BB321E030E0C6
:1000B000B90102C0660F771F8A95E2F7CB01842B46
:1000C0000EC0411167C04BB321E030E0B90102C05E
:1000D000660F771F8A95E2F7CB01809584238BBB4F
:1000E0000895413061F448B321E030E0B90102C025
:1000F000660F771F8A95E2F7CB01842B0EC0411162
:1001000049C048B321E030E0B90102C0660F771F53
:100110008A95E2F7CB018095842388BB089541300E
:1001200061F445B321E030E0B90102C0660F771FEA
:100130008A95E2F7CB01842B0EC041112BC045B349
:1001400021E030E0B90102C0660F771F8A95E2F71F
:10015000CB018095842385BB0895413061F442B37F
:1001600021E030E0B90102C0660F771F8A95E2F7FF
:10017000CB01842B0EC041110DC042B321E030E011
:10018000B90102C0660F771F8A95E2F7CB0180950F
:10019000842382BB0895FC010396928381832FEF11
:1001A0003FEF3483238396838583908787831082F0
:1001B0000895FC01118610860895CF93DF939C016A
:1001C000FB01DC011196CD91DC911297D383C283A0
:1001D0008C819D81958384838C819D81DC01139624
:1001E0007C936E9312977D836C8331872087F9010E
:1001F00080818F5F8083DF91CF9108950F931F934C
:10020000CF93DF938C01FB01808191818F3F2FEF92
:10021000920721F4E801AF81B8850EC0D80113968A
:1002200012962D913C911397E901488159818417C9
:10023000950710F0D901F4CF12968D919C911397E8
:1002400093838283EC01FD83EC83B583A4831396AF
:10025000FC93EE93129711870087F80180818F5FDE
:100260008083DF91CF911F910F910895CF93DF93FA
:10027000FC01A085B1858281938124813581EC01C7
:100280003D832C83C481D5819B838A8311968D9174
:100290009C911297E817F90721F41296DC93CE93FC
:1002A0001197118610868C9181508C938C91DF91DF
:1002B000CF91089531E1FC013083319722E2208310
:1002C0003197A3E3A083319760833197708331978F
:1002D0001082319760E8608331971082319762E035
:1002E0006083319763E06083319764E06083319786
:1002F00065E06083319766E06083319767E06083F3
:10030000319768E06083319769E06083319760E1FD
:10031000608331973083319732E13083319733E115
:100320003083319734E13083319735E13083319731
:1003300036E13083319737E13083319738E13083CC
:10034000319739E13083319730E23083319731E2B0
:10035000308331972083319723E220833197408384
:1003600031975083319726E22083319727E220830B
:10037000319728E22083319729E22083319720E3C7
:100380002083319721E32083869708951BBC8EE05C
:100390008ABD8BE08EBD89B7806189BFA09135048D
:1003A000B0913604CD91CDBFDD91DEBFFF91EF91CD
:1003B000DF91CF91BF91AF919F918F917F916F917D
:1003C0005F914F913F912F911F910F91FF90EF906F
:1003D000DF90CF90BF90AF909F908F907F906F9065
:1003E0005F904F903F902F901F900F900FBE0F90F7
:1003F000089581E008950F920FB6F8940F921F921E
:1004000011242F923F924F925F926F927F928F9220
:100410009F92AF92BF92CF92DF92EF92FF920F9393
:100420001F932F933F934F935F936F937F938F937C
:100430009F93AF93BF93CF93DF93EF93FF93A091DD
:100440003504B09136040DB60D920EB60D920E9491
:10045000D606A0913504B0913604CD91CDBFDD9183
:10046000DEBFFF91EF91DF91CF91BF91AF919F914F
:100470008F917F916F915F914F913F912F911F913C
:100480000F91FF90EF90DF90CF90BF90AF909F9033
:100490008F907F906F905F904F903F902F901F9024
:1004A0000F900FBE0F9008951F920F920FB60F92EC
:1004B00011242F933F934F935F936F937F938F9369
:1004C0009F93AF93BF93EF93FF930E94CD05FF914E
:1004D000EF91BF91AF919F918F917F916F915F91BC
:1004E0004F913F912F910F900FBE0F901F90189535
:1004F000CF93DF93EC010E94C70580918800909113
:100500008900892B31F48DE890E0909389008093E5
:10051000880020918A0030918B00C9018C0F9D1FAB
:100520008F3143E0940770F42817390758F4C091CD
:100530008800D0918900C20FD31F90938B008093C5
:100540008A0002C0C0E0D0E00E945506CE01DF91D3
:10055000CF91089508950F931F93CF93DF93EC01EC
:10056000042F1A8D4C8D4423B1F150E0011115C0B8
:100570008A819B810E94BE082C8D8A819B81820F7B
:10058000911D9B838A832C813D818217930718F1EB
:10059000888199819B838A831EC08E819F810E945E
:1005A000BE088C8D90E09195819591092E813F81B7
:1005B000280F391F3F832E8348815981241735071F
:1005C00030F42C813D81820F931F9F838E830230F4
:1005D00011F4111111501F5F1A8F80E0DF91CF913C
:1005E0001F910F910895EF92FF921F93CF93DF9386
:1005F000EC010FB6F8940F921E8D7C0181E1E80E9C
:10060000F11C11165CF48989882341F0C7010E940E
:10061000290781110E949E071150F3CF8FEF8E8F13
:100620000F900FBE0FB6F8940F921D8D7E0188E0DB
:10063000E80EF11C11165CF48885882341F0C7018F
:100640000E94290781110E949E071150F3CF8FEF5E
:100650008D8F0F900FBEDF91CF911F91FF90EF9084
:100660000895CF93DF93EC010FB6F8940F92488171
:1006700059818B8D7C8D9A01879F200D311D11240E
:100680003D832C831A8E5B834A8390E00197789F89
:100690009001799F300D1124CA01820F931F9F830F
:1006A0008E838FEF8D8F8E8F611108C08885882390
:1006B00069F0CE0108960E94290708C0CE0108966D
:1006C0000E94CB00CE0141960E94CB000F900FBE3E
:1006D00081E0DF91CF9108950F931F93CF93DF9324
:1006E000082F162F869FC00111244F960E94780272
:1006F000EC01009771F0111103C09983888303C046
:100700004F96998388830B8F1C8F61E0CE010E94E6
:100710003103CE01DF91CF911F910F910895AF92D8
:10072000BF92CF92DF92FF920F931F93CF93DF93ED
:1007300000D000D01F92CDB7DEB78C016B015D8376
:100740004C83F22E80E0580198E0A90EB11C0FB640
:10075000F8940F92F801228D938D291718F0F2E08A
:10076000FF1211C04F2DB601C8010E94AB02F80163
:100770008189882321F0C80141960E9429070F90A2
:100780000FBE81E050C02C813D81232B19F40F90C6
:100790000FBE48C0811104C0CE0101960E946907B6
:1007A0000F900FBE0E94C7050FB6F8940F92F80184
:1007B000858D8F3F09F4158EF801868D8F3F09F4E2
:1007C000168E0F900FBEBE016C5F7F4FCE0101965B
:1007D0000E947407811121C00FB6F8940F92F8019E
:1007E000928D0F900FBE838D981311C06C817D8107
:1007F000C5010E941907C8010E94F3020E94550614
:10080000882311F081E0A3CF0E94FB01FBCFC80138
:100810000E94F3020E945506F5CFC8010E94F30220
:100820000E94550680E00F900F900F900F900F9050
:10083000DF91CF911F910F91FF90DF90CF90BF90EC
:10084000AF900895E091D003F091D10380818111A0
:1008500003C08FEF9FEF0CC0E091D003F091D10364
:100860000580F681E02D0680F781E02D828193815D
:100870009093B0038093AF0308950F931F93CF938A
:10088000DF93EC010091B8031091B9038091350416
:100890009091360402960E943601C00FD11FE0915C
:1008A0003504F0913604D383C2836091350470918E
:1008B0003604C017D10760F48091CE039091CF0326
:1008C0006E5F7F4FDF91CF911F910F910C94FE00CF
:1008D0008091D0039091D1036E5F7F4F0E94FE0004
:1008E0008091AF039091B003C817D90720F4D0933B
:1008F000B003C093AF03DF91CF911F910F91089583
:100900008091BB03882309F10FB6F8940F92E09110
:10091000C103F091C203C681D781CE0102960E9425
:1009200036018091BA0381508093BA038091BB0352
:1009300081508093BB030F900FBE8F89988D0E94CA
:10094000AA02CE010E94AA02DBCF0E94FB01D8CFEF
:100950004F925F926F927F928F929F92AF92BF92CF
:10096000CF92DF92EF92FF920F931F93CF93DF937B
:100970004C016B015A012901CA010E9478023C0115
:10098000892B09F4C8C086E290E00E947802EC014D
:10099000009789F0788E6F8A21E0A21AB108A60C20
:1009A000B71CC114D104C9F0BC01675E7F4FF601CA
:1009B000C601089607C0C3010E94AA02ACC08E17E8
:1009C0009F0749F09F014191DB014D93BD01D90182
:1009D0002C912111F4CF18A201C0198E093008F012
:1009E00008E00E8B6E01B2E0CB0ED11CC6010E9456
:1009F000D900CE010C960E94D900D987C88789E01A
:100A000090E0801B91099D878C87DB8BCA8B19A294
:100A10001AA21BA21CA21DA2A201B401C5010E9420
:100A20005A0199838883E114F10419F0F701D18305
:100A3000C0830FB6F8940F928091BA038F5F8093B2
:100A4000BA038091350490913604892B99F5D0939F
:100A50003604C09335048091BA038130D9F504EE91
:100A600013E085E3E82E84E0F82EC8010E94CB0055
:100A7000075F1F4FE016F106C1F78BED93E00E9470
:100A8000CB0082ED93E00E94CB0085EC93E00E94C6
:100A9000CB008CEB93E00E94CB008BED93E0909326
:100AA000D1038093D00382ED93E09093CF038093A2
:100AB000CE0310C08091B60381110CC0E0913504C3
:100AC000F091360496898E89891720F0D0933604E8
:100AD000C09335048091B1038F5F8093B1038E89F9
:100AE0009091B703981710F48093B703F9E08F9FA4
:100AF000C0011124B6018C519C4F0E94DD000F9063
:100B00000FBE8091B603882321F080913504909127
:100B1000360481E001C08FEFDF91CF911F910F91DB
:100B2000FF90EF90DF90CF90BF90AF909F908F900D
:100B30007F906F905F904F900895EF92FF920F9388
:100B40008DEAE82E83E0F82E00E020E030E045E575
:100B500050E060E670E080E894E00E94A8048130F4
:100B600091F4F8942FEF3FEF3093B0032093AF034D
:100B70008093B6031092B9031092B8030F91FF90BF
:100B8000EF900C94C6010F91FF90EF900895809123
:100B9000AC038F5F8093AC030895DF92EF92FF92D6
:100BA0000F931F93CF93DF938091AC0381116BC0A0
:100BB000C091B803D091B9032196D093B903C093E3
:100BC000B8032097B9F48091D0039091D10320917C
:100BD000CE033091CF033093D1032093D003909371
:100BE000CF038093CE038091B2038F5F8093B203D3
:100BF0000E9422048091AF039091B003C817D907D7
:100C000008F44AC089E0D82EE091D003F091D103D6
:100C10008081811103C08FEF9FEF0FC0E091D0035F
:100C2000F091D1030580F681E02D06811781F8014E
:100C300082819381C817D90728F49093B0038093D9
:100C4000AF032AC07801F2E0EF0EF11CC7010E9449
:100C50003601F80184899589892B21F0C8010C9609
:100C60000E943601F80186899091B703981710F415
:100C70008093B703D89EC0011124B7018C519C4FBB
:100C80000E94DD00C1CF8091B4039091B50301961D
:100C90009093B5038093B40380E0DF91CF911F91CF
:100CA0000F91FF90EF90DF900895EF92FF920F93D6
:100CB0001F93CF93DF930FB6F8940F928091AC03FC
:100CC00081508093AC038091AC03811151C080911D
:100CD000BA03882309F44CC0C0E0D0E089E0F82EC4
:100CE000EE24E3948091C503882351F1E091CA0377
:100CF000F091CB03C681D781CE010C960E943601BC
:100D00008E010E5F1F4FC8010E9436018E8990919F
:100D1000B703981710F48093B703F89EC00111240D
:100D2000B8018C519C4F0E94DD00E0913504F09198
:100D300036049E8986899817A8F2E092B303D2CF31
:100D4000CD2B11F00E942204C091B403D091B503C1
:100D5000209761F011E00E94CD0581111093B3033B
:100D60002197C9F71092B5031092B4038091B30391
:100D70000F900FBE80E0DF91CF911F910F91FF90F8
:100D8000EF900895CF93DF93EC01892B19F40E9423
:100D9000FB0109C00E94C705CE010E943D040E94CC
:100DA00055068823A1F3DF91CF9108958091AC037C
:100DB000882321F081E08093B30308951092B30358
:100DC0008091B70369E0482F50E0649F9001659FD0
:100DD000300D1124F901EC51FC4F9081911102C0AA
:100DE0008150F1CFA181B28112960D90BC91A02DBE
:100DF000B283A18329513C4FA217B30731F4129655
:100E00002D913C9113973283218399E0949FF001B7
:100E1000959FF00D1124EC51FC4F0180F281E02DE3
:100E20002681378130933604209335048093B703AD
:100E30000895CF93DF93EB016091350470913604F0
:100E4000645F7F4F0E94FE00CE01DF91CF910C9432
:100E50003D040F931F93CF93DF93DC011596ED9123
:100E6000FC911697C681D7818E01045F1F4FC80180
:100E70000E9436018091AC03811114C00A501109FF
:100E8000C8010E9436018E899091B703981710F41B
:100E90008093B703B9E08B9FC0011124B8018C5136
:100EA0009C4F03C0B80185EC93E00E94DD00E09107
:100EB0003504F09136049E898689891720F481E0F3
:100EC0008093B30301C080E0DF91CF911F910F9118
:100ED00008952091B203FC0120832091B803309142
:100EE000B9033283218308950FB6F8940F922091AD
:100EF000B8033091B903DC0111964D915C911297C2
:100F0000E091B203FC91FE1719F02417350790F415
:100F1000241B350BFB01408151812417350740F418
:100F2000421B530B518340830E94690780E003C03A
:100F30001182108281E00F900FBE089581E08093AE
:100F4000B303089520E030E02817390721F00000AE
:100F50002F5F3F4FF9CF0895CF93C82F8BB38F707A
:100F60009C2F907F892B8BBB41E060E080E00E944A
:100F7000490040E060E081E00E94490041E060E01B
:100F800082E00E94490081E090E00E94A20740E0D8
:100F900060E082E00E94490084E190E00E94A207A4
:100FA0008BB3282F2F7030E1C39FC0011124822BF7
:100FB0008BBB41E060E082E00E94490081E090E06C
:100FC0000E94A20740E060E082E00E94490088ECB5
:100FD00090E0CF910C94A207CF93DF93EC0189911D
:100FE000882319F00E94AC07FACFDF91CF910895C2
:100FF000CF93C82F8BB38F709C2F907F892B8BBB87
:1010000040E060E080E00E94490040E060E081E074
:101010000E94490041E060E082E00E94490081E0D6
:1010200090E00E94A20740E060E082E00E94490058
:1010300084E190E00E94A2078BB3282F2F7030E14B
:10104000C39FC0011124822B8BBB41E060E082E092
:101050000E94490081E090E00E94A20740E060E029
:1010600082E00E94490088EC90E0CF910C94A207A6
:1010700020E030E02817390749F0E9EFF0E0319738
:10108000F1F700C000002F5F3F4FF4CF089581E0DB
:101090000E94F80785E090E00C9438088AB38760D6
:1010A0008ABB8AB3806F8ABB84E190E00E943808D3
:1010B00040E060E082E00E94490083E30E94F8077C
:1010C00082E30E94F80788E20E94F8078CE00E9401
:1010D000F8070E94470886E00E94F80788EC90E035
:1010E0000C94A2070E94470885E690E00E94EC0756
:1010F00080E699E00E94C206F5CF0E94470886E785
:1011000090E00E94EC0788EB9BE00E94C206F5CFBE
:10111000EF92FF920F930E944E0843E060E081E05F
:101120000E946C039093380480933704009739F041
:1011300020E040E050E060E070E00E948F03E12C8E
:10114000F12C02E020E030E045E550E060E070E0A6
:1011500082E798E00E94A80420E030E045E550E0F6
:1011600060E070E08DE798E00E94A8040E949D0571
:1011700080E090E00F91FF90EF900895FB01DC017B
:1011800002C001900D9241505040D8F70895F89454
:02119000FFCF8F
:1011920049444C450048692C4920616D20546173D3
:1011A2006B202831290048692C4920616D20546147
:0811B200736B202832290000B4
:00000001FF
